:020000040800F2
:1000000008180020F94A0008750500085B7200080E
:1000100077050008790500087B050008000000004E
:100020000000000000000000000000007D05000846
:100030007F05000800000000E37100080B050008C0
:10004000134B0008134B0008134B0008134B000818
:10005000134B0008134B0008AB080008BF0800084A
:10006000D3080008E7080008FB080008134B000845
:10007000134B00085D0D0008134B0008070D000826
:10008000310D0008134B0008134B000883050008CE
:1000900081050008134B0008134B00080F090008E6
:1000A000134B0008134B0008134B0008134B0008B8
:1000B000134B0008134B0008134B0008134B0008A8
:1000C000134B0008134B0008134B0008134B000898
:1000D000134B0008F30C00081B0D0008470D000827
:1000E00067090008134B0008134B0008134B000866
:1000F000134B0008134B0008134B0008134B000868
:10010000134B0008134B0008134B0008134B000857
:10011000134B0008134B0008134B0008134B000847
:10012000134B0008134B0008134B0008134B000837
:1001300000F002F800F06DF80AA090E8000C82448C
:100140008344AAF10107DA4501D100F062F8AFF269
:10015000090EBAE80F0013F0010F18BFFB1A43F0A5
:1001600001031847D0DD0000F0DD00000A444FF025
:10017000000C10F8013B13F0070408BF10F8014B06
:100180001D1108BF10F8015B641E05D010F8016B4B
:10019000641E01F8016BF9D113F0080F1EBF10F8AF
:1001A000014BAD1C0C1B09D16D1E58BF01F801CBD2
:1001B000FAD505E014F8016B01F8016B6D1EF9D555
:1001C0009142D6D37047000000230024002500266A
:1001D000103A28BF78C1FBD8520728BF30C148BFAA
:1001E0000B60704775290AF04D82002070471FB5DB
:1001F0000BF036FA0400002000210CF021FC401C1A
:100200006060002000210CF005FCE0601FBD10B50F
:1002100010BD0BF0CDFC1146FFF7E9FF00F064F9CB
:100220000BF016FF03B4FFF7F2FF03BC08F0DEF893
:1002300010B50122110282A009F000FC0446002C36
:1002400003D0204609F082FDFBE710BD44F620658F
:100250004FF47A767C4C0EE0284606F079FD02E0F9
:10026000304606F075FD0AF045F92178012908D0DD
:10027000304606F06DFD0AF034F921780129EFD1FE
:10028000EAE7284606F064FDF5E709F01CBE1CB558
:10029000002401256D4F38460AF07BF90646381DCB
:1002A0000AF066F9711C03D1A0F57F41FF3914D023
:1002B000C4B2050A2146304609F097FD284609F0E8
:1002C00091FD3346032229460020009408F09AF855
:1002D00008F00AF908F027F9FCE74FF41656214612
:1002E000304609F082FD284609F07CFD00968DF825
:1002F00004408DF805500322694638460AF04EF94D
:10030000DFE7044642F2107520460022042104F083
:1003100054FD284606F01CFDF6E73EB540F6B83021
:1003200002904BA004F05EFC474CA0606FF0070504
:1003300050B1826A0021904702AA0221A06804F00D
:100340003CFD18B128463EBD28463EBD14200B2179
:10035000CDE900104FF40073AFF259013DA0A2683F
:1003600006F043FC08B106F00BFC00220521A06852
:1003700004F023FD00203EBD7CB50AF066F80AF0CB
:100380008BF809F084FEFFF7C8FF09F00DFD00218E
:100390000B2006F0F5FF0021022006F0F1FF0021FE
:1003A000022006F0F4FF00210B2006F0F0FF0120F0
:1003B0001424CDE90004C5022B460022284929A0B7
:1003C00006F013FC08B106F0DBFB0A20CDE90004BF
:1003D0002E4633460022274927A006F006FC08B126
:1003E00006F0CEFB0225CDE9005433460022254914
:1003F00025A006F0FAFB08B106F0C2FB42F210732A
:100400000022254925A0009506F063FD0E494860AD
:10041000002803D0BDE87C4006F082BD7CBD1CB541
:1004200008211420CDE900100B020022AFF2B70121
:100430001FA006F0DAFB08B106F0A2FB00201CBDED
:1004400075617274320000000000002000FC010899
:1004500077646700697764675F7465737400000090
:10046000310200087573617274325F74687265617D
:10047000640000004D0200086C65645F746872657A
:10048000616400008F0200086D6F646275735F74B1
:1004900068726561640000008B0200086C65766517
:1004A0006C696E7075745F74696D65720000000030
:1004B000696E697400000000FEE710B500F02EF8C8
:1004C00005F0E2FC0C490D4805F057FF06F0C0F9B5
:1004D00006F007FE06F010FEFFF7A1FF04F0F4FCA3
:1004E000BDE8104006F0CAB910B506F063FEFFF78C
:1004F000E4FF002010BD000000500020081800207C
:1005000000214FF0006004F085BA10B505F072FBD1
:1005100004F020FBBDE8104005F07CBB00B585B0C1
:10052000FFF7EEFF684601F05EF8019842F21071A5
:10053000B0FBF1F0C008B0F1807F0CD220F07F4119
:100540004FF0E020491E4161094AF021117000215D
:100550008161072101616FF0040004F095FA00F059
:100560008AF900F06EFC00F041FD05B000BD00000E
:1005700023ED00E07047FEE7FEE7FEE770477047B7
:1005800070477047312809D2FF4900EB800001EB2A
:1005900080000168491C00D100207047002070478E
:1005A00010B5C8B2FFF7EEFF00280ED032B1818936
:1005B0008068BDE8104089B202F0ACBC81898068D7
:1005C000BDE8104089B202F0CCBC10BD10B50024CB
:1005D000C8B2FFF7D7FF40B18189806889B202F0C5
:1005E0008CFB00B10124204610BD204610BD38B55B
:1005F0001546C8B2FFF7C6FF0446002C1AD00121E9
:10060000606801F05FF8A089ADF8000010208DF857
:10061000030003218DF802106DB1042D0ED0012DC1
:1006200010D0022D12D028208DF803006946A06852
:1006300002F0C8FA38BD8DF80300F7E714208DF8F2
:100640000300F3E704208DF80300EFE748208DF85E
:100650000300EBE72DE9F0470E46DDF82090174642
:100660009846F0B2FFF78EFF6FF0050550B1C068F5
:1006700000F0B9F90446002C01DB102C04D3284605
:10068000BDE8F0872846FBE706F094FD0546BF4B22
:1006900004EB440033F92020B2420FD103EB800178
:1006A0004C6844450AD14C88BC4207D18968494509
:1006B00004D1284606F082FD0020E1E7521C05D057
:1006C000284606F07BFD6FF00600D9E723F820608E
:1006D00003EB8000C0F804804780C0F808902846EB
:1006E00006F06CFD0020CBE770B54FF0FF35C8B2C7
:1006F000FFF748FF6E1F48B1C06800F074F9044668
:10070000002C01DB102C03D3304670BD304670BD89
:1007100006F050FD01469D4B04EB440033F92020C8
:10072000521C0CD023F8205003EB800000224260C2
:1007300042808260084606F041FD002070BD0846F8
:1007400006F03CFD002070BD2DE9FF5FC8B2FFF749
:1007500019FF04466FF0050A64B1DFF834920026F1
:100760004FF00808012A07D0002A67D0504604B08D
:10077000BDE8F09F5046FAE7E06800F034F905461E
:10078000002D01DB102D01D35046F0E706F012FDDD
:100790000746DFF8F8B105EB45053BF92500401C9D
:1007A00034D009EB850A0121606800F08BFFA08935
:1007B000ADF80C0048208DF80F0003208DF80E00D6
:1007C00003A9A06802F0FEF99AF808008DF8080065
:1007D00002208DF809008DF80A004FF001098DF80C
:1007E0000B9002A804F0CEF8617C207C02F0DAFDC8
:1007F000DAF8040000908DF804600BEB8500408867
:1008000048B101280AD002280FD10BE0384606F083
:10081000D5FC5046ABE78DF8058006E00C208DF83E
:10082000050002E010208DF805008DF8069068465E
:1008300001F04CF8384606F0C1FC18E0E06800F022
:10084000D2F8002801DB102801D3304603E000EB8A
:10085000400009EB800060B1406800908DF80460B2
:100860008DF805808DF80660684601F02FF80020AD
:100870007DE750467BE746490022C03145A006F09F
:1008800041BD10B500EB4004414800EB84004068D6
:1008900001F025F93D4800EB84004168002903D0B0
:1008A0008068BDE81040084710BD10B505F0A2F9FA
:1008B0000020FFF7E6FFBDE8104005F0ABB910B52A
:1008C00005F098F90120FFF7DCFFBDE8104005F0C6
:1008D000A1B910B505F08EF90220FFF7D2FFBDE8EF
:1008E000104005F097B910B505F084F90320FFF723
:1008F000C8FFBDE8104005F08DB910B505F07AF9D4
:100900000420FFF7BEFFBDE8104005F083B910B525
:1009100005F070F9202001F09BF810B10520FFF7D9
:10092000B0FF402001F094F810B10620FFF7A9FFB6
:10093000802001F08DF810B10720FFF7A2FF4FF4DF
:10094000807001F085F810B10820FFF79AFF4FF48E
:10095000007001F07DF810B10920FFF792FFBDE8AB
:10096000104005F057B910B505F044F94FF4806018
:1009700001F06EF810B10A20FFF783FF4FF400601A
:1009800001F066F858B107E0D0D500080C0000204F
:10099000A4D9000870696E000B20FFF772FF4FF4B6
:1009A000805001F055F810B10C20FFF76AFF4FF4AA
:1009B000005001F04DF810B10D20FFF762FF4FF429
:1009C000804001F045F810B10E20FFF75AFF4FF4B8
:1009D000004001F03DF810B10F20FFF752FFBDE8D5
:1009E000104005F017B901460020012303FA00F278
:1009F0008A4204D0401C2028F8DB4FF0FF307047BB
:100A00001FB5C46B086800900879002200F00F0041
:100A1000082802D0092803D006E0ADF8042003E03E
:100A20004FF48050ADF80400486810F0300F04D047
:100A3000C0F30110012803D006E0ADF8062003E062
:100A40004FF40050ADF80600486810F0C00F06D013
:100A5000C0F38110012805D0022808D00BE0ADF8C2
:100A6000082008E04FF4C060ADF8080003E04FF440
:100A70008060ADF80800ADF80C200C20ADF80A003D
:100A80006946206802F049FD0121206802F05EFEFF
:100A900004B0002010BD70B58CB00646F46BF56C48
:100AA000B06CC0F38F206061012240F224412068C5
:100AB00002F076FE0121084600F0E2FD012102204D
:100AC00000F0DEFDA06803F013FB2068001D01901C
:100AD0002868029000250395B06CC0F38F20049025
:100AE0000595802006900795089520200990000222
:100AF0000A900B9501A9A06803F0A2FBE06803F03F
:100B000031FE01220221A06803F09CFC0122402159
:100B1000206802F0DBFE0121A06803F049FC207C84
:100B20008DF800008DF801508DF8025001208DF8ED
:100B30000300684603F026FF0CB070BD10B5C36B10
:100B4000032928D0012240F22554102912D011295E
:100B500026D193F9040000F01F018A40400980006B
:100B600000F1E020C0F8802100222146186802F040
:100B700017FE15E093F9040000F01F018A404009B8
:100B8000800000F1E020C0F8002101222146186811
:100B900002F006FE04E0B2F5007F01D1FFF77BFF13
:100BA000002010BD10B5C26B038BC06B5B050068E5
:100BB00012D5038840F226641B0606D40122214682
:100BC00002F0EEFD4FF0FF3010BD81801068012271
:100BD000214602F0E5FD04E08180106801884906A5
:100BE000FCD5012010BDC16B4FF0FF3009680A88A9
:100BF000920601D58888C0B270472DE9F0410646BB
:100C0000F46B06F0D7FA0746A06803F0C8FC6169E8
:100C1000081AA169451AA061384606F0CFFA2DB12D
:100C2000032000EB0521304606F06EFE206802F03E
:100C30007AFFE068BDE8F04103F094BD70B5064668
:100C4000F46B06F0B7FAD4E905128D1A0021A16100
:100C500006F0B4FA2DB1032000EB0521304606F072
:100C600053FEE068BDE8704003F07CBD70B50546FA
:100C7000EC6B40F225563146206803F079F960B1FB
:100C80000121206803F0F1F818B90121284606F087
:100C90003BFE3146206803F0DBF940F22441206836
:100CA00003F066F910B12846FFF7A7FF40F2266669
:100CB0003146206803F05CF978B1288B400503D5F4
:100CC0000221284606F020FE00223146206802F06C
:100CD00067FD3146206803F0BBF90821206803F066
:100CE000C4F8012804D12068BDE8704002F01BBFA1
:100CF00070BD10B504F07EFF7548FFF7B7FFBDE883
:100D0000104004F087BF10B504F074FF7048FFF77F
:100D100095FFBDE8104004F07DBF10B504F06AFFF8
:100D20006B485430FFF7A2FFBDE8104004F072BFDB
:100D300010B504F05FFF66485430FFF77FFFBDE851
:100D4000104004F067BF10B504F054FF6048A830AD
:100D5000FFF78CFFBDE8104004F05CBF10B504F055
:100D600049FF5B48A830FFF769FFBDE8104004F079
:100D700051BF10B50121052000F0A4FC012188031A
:100D800000F0A0FC0121052000F09CFC012148049A
:100D900000F0B8FC0121092000F094FC0121BDE81D
:100DA0001040880400F0AEBCF8B502208DF80200B7
:100DB00004248DF803404602ADF80060454F6946B3
:100DC000384601F0FFFE18258DF80350E001ADF81C
:100DD00000006946384601F0F5FE8DF80340082012
:100DE000ADF800006946384601F0ECFE8DF803507E
:100DF000ADF800406946384601F0E4FE8DF8034046
:100E00006002ADF80000344C6946204601F0DAFE7D
:100E10008DF80350ADF800606946204601F0D2FE1F
:100E2000F8BD08B500798DF8000000208DF80100AC
:100E300001208DF802008DF80300684603F0A2FD42
:100E400008BD2DE9FC41254840680190FFF791FF5E
:100E5000FFF7AAFF224C4FF4E135204E1C4808361C
:100E600006640199C0E911512046FFF7DAFF40F20C
:100E70000378234642461BA1154806F020FD04F1E5
:100E80001C0713485430066400F12C040198C4E98F
:100E900006503846FFF7C5FF3B46424613A1A4F172
:100EA0002C0006F00CFD1C3704F1280006640198A4
:100EB000C4E91B503846FFF7B4FF02B03B46424638
:100EC00004F12800BDE8F0410AA106F0F8BC0000DA
:100ED0009006002000080140000C01407CDA000868
:100EE000CC0000207561727431000000756172746D
:100EF00032000000756172743300000000207047FA
:100F000010B501295AD0022905D0042967D0052936
:100F100068D0082010BD146845F2555000F00EFE50
:100F200043F23330844209D34000844200D3044664
:100F3000062000F011FE4FF480702FE041F699106A
:100F4000844204D3052000F007FE802026E040F60E
:100F5000CC40844204D3042000F0FEFD40201DE07C
:100F600040F26660844204D3032000F0F5FD2020A7
:100F700014E040F23330844204D3022000F0ECFD50
:100F800010200BE0B4F5CC7F04D9012000F0E4FD83
:100F9000082003E0002000F0DFFD042004EB8401C2
:100FA000C900B1FBF0F0B0F5805F01D340F6FF70EF
:100FB00080B200F0E8FD00F0F2FD15E0114B58683A
:100FC000062800D90620801C012181409868C0F3C2
:100FD0000B0048432821B0FBF1F0106004E000F062
:100FE000DEFD01E000F0E0FD002010BD10B5074976
:100FF0000548086400231A4605A1044807F091F942
:10100000002010BD0030004098DA00088C07002056
:10101000776467000CB50022019200925248016883
:1010200041F4803101604FF4A063016801F40031A4
:1010300000910199491C0191009911B901999942B6
:10104000F3D10168890302D50121009100E00092EB
:101050000099012930D145490A6842F010020A601E
:101060000A6822F003020A600A6842F002020A607B
:101070004168416041684160416841F4806141607C
:10108000416821F47C114160416841F4E8114160FC
:10109000016841F08071016001688901FCD54168F7
:1010A00021F003014160416841F002014160416863
:1010B000C1F381010229FAD10CBDABE710B52A4872
:1010C000016841F0010101604168294A1140416015
:1010D0000168284A11400160016821F48021016003
:1010E000416821F4FE0141604FF41F018160FFF768
:1010F000E4FF21494FF00060086010BD10B51A4AA6
:10110000506800F00C011D4B1D4800290ED0042929
:101110000ED008290ED003605168194AC1F303119B
:10112000121D515C0268CA40026010BD0360F3E703
:101130000360F1E7516801F47011536803F48033E0
:10114000022404EB914133B153689B0307D50D4B47
:1011500059430160E0E70B4B59430160DCE7074B63
:1011600059430160D8E7000000100240002002400F
:101170000000FFF8FFFFF6FE08ED00E000127A0025
:101180002001002000093D00FB48016841F00101F9
:1011900001604168F94A114041600168F84A114014
:1011A0000160016821F480210160416821F4FE01A1
:1011B00041604FF41F018160704770B504464FF4E1
:1011C0008035AE00002C08D0AC4206D0B44204D02A
:1011D00040F21111EBA0FFF76FF9E748016821F425
:1011E00080310160016821F480210160AC4206D0A9
:1011F000B44203D1016841F4A021016070BD0168CF
:1012000041F48031016070BD70B504460025212C89
:1012100018D0312C16D0392C14D0412C12D0612C7E
:1012200010D07A2C0ED07B2C0CD07C2C0AD07D2CAC
:1012300008D07E2C06D07F2C04D040F23451D1A0AF
:10124000FFF73AF96009CC4901280BD002280BD0EE
:10125000486A04F01F0101228A40024200D00125A1
:10126000284670BD0868F4E7086AF2E738B5002040
:1012700000904FF4A0643120FFF7C6FF0099491C8D
:1012800000910099A14201D00028F4D03120FFF74D
:10129000BBFF08B1012038BD002038BD10B50446A1
:1012A0001F2C04D94FF4A971B6A0FFF705F9B24974
:1012B000086820F0F80040EAC400086010BD10B5CE
:1012C0000446002C06D0012C04D040F26511ADA0DC
:1012D000FFF7F2F8BA48046010BD70B505460C4639
:1012E000002D0AD0B5F5803F07D0B5F5403F04D0BA
:1012F00040F27F11A3A0FFF7DFF874B3B4F5802F9D
:101300002BD0B4F5002F28D0B4F5402F25D0B4F55C
:10131000801F22D0B4F5A01F1FD0B4F5C01F1CD071
:10132000B4F5E01F19D0B4F5001F16D0B4F5101FA6
:1013300013D0B4F5201F10D0B4F5301F0DD0B4F584
:10134000401F0AD0B4F5501F07D0B4F5601F04D079
:101350004FF4C0718BA0FFF7AFF88749486820F4BD
:101360007C10254305434D6070BD10B50446002C2C
:1013700006D0012C04D04FF4CA7182A0FFF79CF86C
:101380008F48046610BD10B50446002C08D0012C0F
:1013900006D0022C04D04FF40E717AA0FFF78CF81F
:1013A0007549486820F003002043486010BD72482A
:1013B000406800F00C00704710B50446002C14D0B3
:1013C000802C12D0902C10D0A02C0ED0B02C0CD091
:1013D000C02C0AD0D02C08D0E02C06D0F02C04D0A1
:1013E0004FF4197167A0FFF767F86349486820F068
:1013F000F0002043486010BD10B50446002C10D00A
:10140000B4F5806F0DD0B4F5A06F0AD0B4F5C06FFD
:1014100007D0B4F5E06F04D040F27E2159A0FFF769
:101420004BF85549486820F4E0602043486010BDFF
:1014300010B50446002C10D0B4F5806F0DD0B4F573
:10144000A06F0AD0B4F5C06F07D0B4F5E06F04D038
:101450004FF426714BA0FFF72FF84749486820F456
:10146000605040EAC400486010BD70B504460D46A7
:10147000600900D124B940F2BF2142A0FFF71CF857
:1014800035B1012D04D04FF430713EA0FFF714F8B0
:1014900039481DB1417A2143417270BD417AA1435F
:1014A000417270BD10B50446002C06D0012C04D04A
:1014B00040F2DB2133A0FEF7FFFF4148D830046043
:1014C00010BD10B50446002C0DD0B4F5804F0AD0E5
:1014D000B4F5004F07D0B4F5404F04D040F20231CC
:1014E00028A0FEF7E9FF2449486820F44040204343
:1014F000486010BD10B50446002C08D0012C06D061
:10150000042C04D04FF450711EA0FEF7D5FF1A48EA
:1015100000212030017000F82019012C05D0042C86
:1015200002D1052180F8201010BD012180F8201083
:1015300010BD10B50446002C06D0012C04D040F29A
:10154000613110A0FEF7B8FF1E48046010BD10B551
:101550000446B4F5807F0AD0B4F5007F07D0B4F517
:10156000407F04D040F2723106A0FEF7A5FF02488A
:10157000016A2143016210BD001002400000FFF823
:10158000FFFFF6FE4C69627261726965735C5354C9
:101590004D3332463130785F5374645065726970F0
:1015A000685F4472697665725C7372635C73746DB4
:1015B0003332663130785F7263632E63000000005F
:1015C000000042428004424210B50446002C07D07D
:1015D000012C05D04FF46071AFF25800FEF76CFF9C
:1015E000AB480460C7E710B5AA4A516801F00C0186
:1015F000A94B002927D0042927D0082927D0036028
:10160000516801F0F0010909A44B5C5C0168E140FC
:101610004160546804F4E064240A1C5D21FA04F477
:101620008460546804F46054E40A1B5DD940C160CE
:10163000526802F44042920B984B1B1F9A5CB1FB1C
:10164000F2F1016197E70360DAE70360D8E75168D8
:1016500001F47011536803F48033022404EB9141C8
:1016600033B153689B0307D58D4B59430160C7E7DE
:101670008B4B59430160C3E7874B59430160BFE778
:1016800070B504460D4640F2575034EA000000D1D0
:101690002CB940F22B41AFF21410FEF70DFF3DB113
:1016A000012D05D040F22C41AFF22810FEF704FFC7
:1016B00078481DB141692143416170BD4169A14331
:1016C000416170BD70B504460D467648044200D1B4
:1016D0002CB940F24A41AFF25410FEF7EDFE3DB195
:1016E000012D05D040F24B41AFF26810FEF7E4FE49
:1016F00068481DB181692143816170BD8169A14341
:10170000816170BD70B504460D466748044200D142
:101710002CB940F26941AFF29410FEF7CDFE3DB115
:10172000012D05D040F26A41AFF2A810FEF7C4FEC9
:1017300058481DB1C1692143C16170BDC169A14350
:10174000C16170BD70B504460D465648044200D1D3
:101750002CB940F2A441AFF2D410FEF7ADFE3DB17A
:10176000012D05D040F2A541AFF2E810FEF7A4FE2E
:1017700048481DB1C1682143C16070BDC168A14323
:10178000C16070BD70B504460D464748044200D1A3
:101790002CB940F2C341AFF21420FEF78DFE3DB1EB
:1017A000012D05D040F2C441AFF22820FEF784FE9F
:1017B00038481DB101692143016170BD0169A14330
:1017C000016170BD10B50446002C07D0012C05D076
:1017D0004FF49B61AFF25420FEF76EFE2C48001DC3
:1017E0000460C8E610B50446002C07D0012C05D0D3
:1017F00040F2E541AFF27420FEF75EFE2B48C46470
:10180000B9E610B50446002C0DD0052C0BD0042CE5
:1018100009D0062C07D0072C05D040F20551AFF2B5
:101820009C20FEF749FE1B48C471A4E61948416A92
:1018300041F080714162704770B504460025012C6B
:101840000FD0022C0DD0042C0BD0082C09D0102C5A
:1018500007D0802C05D040F27E51AFF2D820FEF7A1
:101860002BFE0C488068204200D00125284670BD20
:1018700010B5044614F0600F00D12CB940F2AB5102
:10188000AFF20030FEF718FE0248847273E60000E3
:101890003C0442420010024000127A00380100204D
:1018A00000093D000200C0FF0036018100004242F5
:1018B000914900200860091D0860091D0860091D84
:1018C00008608D498D4814310860704770B5044632
:1018D0002079002805D0042803D06A2188A0FEF7CB
:1018E000EBFD6079082807D00C2805D0102803D01C
:1018F0006B2183A0FEF7E0FD2068010D00D118B92F
:101900006C217FA0FEF7D8FDA07928B1012803D073
:101910006D217BA0FEF7D0FD7749A07958B3086808
:10192000226890430860081D026823689A43026099
:1019300020790844026823681A4302606E4A08321C
:101940001068236898431060131D18682568A84321
:1019500018606079102805D0084401682268114396
:10196000016070BD10682168084310601868216824
:101970000843186070BD20790844016822689143CB
:10198000016070BD0021016001710C224271817102
:10199000704710B50446200D00D11CB9AE2158A0E7
:1019A000FEF78AFD5448103001682143016010BDE4
:1019B00070B504460025012C35D0022C33D0042C00
:1019C00031D0082C2FD0102C2DD0202C2BD0402CF7
:1019D00029D0802C27D0B4F5807F24D0B4F5007FA7
:1019E00021D0B4F5806F1ED0B4F5006F1BD0B4F5D4
:1019F000805F18D0B4F5005F15D0B4F5804F12D0D9
:101A0000B4F5004F0FD0B4F5803F0CD0B4F5003FD3
:101A100009D0B4F5802F06D0B4F5002F03D0BE2135
:101A200037A0FEF749FD344814300068204200D04A
:101A30000125284670BD10B50446200D00D11CB903
:101A4000D4212FA0FEF738FD2B481430046010BDC0
:101A500070B504460025012C35D0022C33D0042C5F
:101A600031D0082C2FD0102C2DD0202C2BD0402C56
:101A700029D0802C27D0B4F5807F24D0B4F5007F06
:101A800021D0B4F5806F1ED0B4F5006F1BD0B4F533
:101A9000805F18D0B4F5005F15D0B4F5804F12D038
:101AA000B4F5004F0FD0B4F5803F0CD0B4F5003F33
:101AB00009D0B4F5802F06D0B4F5002F03D0E5216E
:101AC0000FA0FEF7F9FC0C48006820400A491431C9
:101AD0000968214201D000B10125284670BD10B52A
:101AE0000446200D00D11CB9FC2105A0FEF7E4FC42
:101AF00001481430046010BD00040140FFFF0F00D6
:101B00004C69627261726965735C53544D3332463D
:101B10003130785F5374645065726970685F4472E5
:101B2000697665725C7372635C73746D33326631AF
:101B300030785F657874692E6300000010B5044644
:101B4000A4F5AA40553804D01CB15F2122A0FEF7AD
:101B5000B3FC3048046010BD10B50446002C0FD013
:101B6000012C0DD0022C0BD0032C09D0042C07D053
:101B7000052C05D0062C03D0732117A0FEF79CFC82
:101B80002448446010BD10B50446B4F5805F03D30B
:101B9000802111A0FEF790FC1E48846010BD1D49F5
:101BA0004AF6AA20086070471A494CF6CC400860F3
:101BB000704770B504460025012C05D0022C03D0D7
:101BC000A52105A0FEF778FC1248C068204200D08D
:101BD0000125284670BD00004C696272617269651A
:101BE000735C53544D3332463130785F53746450D4
:101BF00065726970685F4472697665725C7372635E
:101C00005C73746D3332663130785F697764672E48
:101C100063000000003000402DE9F0410446F84D1B
:101C2000F84EF94FAC4207D0B44205D0BC4203D0C5
:101C30007A21F6A0FEF740FCAC420AD101210C0348
:101C40002046FFF77FFD2046BDE8F0410021FFF769
:101C500079BDB4420AD101218C032046FFF792FDE1
:101C60002046BDE8F0410021FFF78CBDBC420AD1FF
:101C70000121CC032046FFF785FD2046BDE8F04159
:101C80000021FFF77FBDBDE8F08170B505460C4629
:101C9000DB48854209D0DB48854206D0DA488542D8
:101CA00003D0A321D9A0FEF707FC208860B1B0F5CE
:101CB000806F09D0B0F5004F06D0B0F5404F03D08B
:101CC000A621D2A0FEF7F8FB6088B0F5827F04D091
:101CD00018B1A721CDA0FEF7EFFBA088B0F5006FEB
:101CE00004D018B1A821C9A0FEF7E6FBE08828B10E
:101CF000022803D0A921C5A0FEF7DEFB208928B168
:101D0000012803D0AA21C1A0FEF7D6FB6089B0F557
:101D1000007F04D018B1AB21BCA0FEF7CDFBA08999
:101D200088B108280FD010280DD018280BD02028F3
:101D300009D0282807D0302805D0382803D0AC2176
:101D4000B2A0FEF7B9FBE08928B1802803D0AD210D
:101D5000AEA0FEF7B1FB208A18B9AE21ABA0FEF70A
:101D6000ABFB288800F4415021886288E388114346
:101D7000A2881A4311432289114362891143A2891F
:101D80001143E289114301432980A88B20F40060AC
:101D9000A883208A288270BD2DE9F04F85B00546C2
:101DA0000C46022600274FF00108DFF858924D45F7
:101DB00006D09548854203D0E32194A0FEF77CFB32
:101DC00020884FF4007A58B1B0F5807F08D0504594
:101DD00006D0B0F5407F03D0E4218CA0FEF76CFB69
:101DE000608858B1102809D0202807D0302805D0A5
:101DF000B02803D0E52185A0FEF75EFBA08848B19E
:101E0000012807D0032805D0052803D0E6217FA0AC
:101E1000FEF752FBE088504504D018B1E7217BA0C3
:101E2000FEF74AFBA068884AA0F5FA51914205D90D
:101E3000022803D0E82175A0FEF73EFBA08928B157
:101E4000082803D0E92171A0FEF736FBA88B4FF2DA
:101E500040010840A88302202884B5F81CB0A0687F
:101E600002282CD0A08808B14FF002086846FFF77E
:101E7000BAFB0098E188514509D1000A00EB8000C7
:101E8000A1684000B0FBF1F0401D80B20BE04FEACA
:101E90004811B0FBF1F000EB8000A1684000B0FBFE
:101EA000F1F0401D80B20A21B0FBF1F101F0010018
:101EB000091AC1F34F064FF6FF7101EA0027B01E61
:101EC000FE2801D302260027E0883E4330432884C1
:101ED00020886188A2890843A1881143084340EA09
:101EE0000B0040F40060A88305B0BDE8F08F00212E
:101EF000018041808180C180018141818181C181D6
:101F00000721018270470021018041808180C180CA
:101F1000022282608181704770B504460D463848C0
:101F200084420AD03748844207D03748844204D0DC
:101F30004FF4D77135A0FEF7BFFA35B1012D04D0AB
:101F400040F2AF1131A0FEF7B7FA25B1208840F07A
:101F50004000208070BD208820F04000208070BDAF
:101F600070B504460D462748844207D0264884426F
:101F700004D04FF4E37125A0FEF79EFA35B1012D90
:101F800004D040F2C71121A0FEF796FA25B1A08B2C
:101F900040F48060A08370BDA08B20F48060A0839B
:101FA00070BD70B504460D461646154884420AD0E9
:101FB0001448844207D01448844204D04FF4F3718B
:101FC00012A0FEF779FA36B1012E04D040F2E711E3
:101FD0000EA0FEF771FA712D08D0602D06D0502D9D
:101FE00004D04FF4F47109A0FEF766FA2809012124
:101FF000814088B21EB1A1880143A18070BD25E057
:102000000030014000380040003C00404C696272E2
:1020100061726965735C53544D3332463130785F79
:102020005374645065726970685F44726976657252
:102030005C7372635C73746D3332663130785F73D6
:1020400070692E6300000000C0CE0200A1888143A9
:10205000A180D3E770B504460D461646FE4884427B
:102060000BD0FE48844208D0FD48844205D04FF48E
:102070000371AFF26800FEF71FFA3EB1012E05D0E2
:1020800040F20D21AFF27C00FEF716FAA80800D14D
:102090002DB940F20E21AFF28C00FEF70DFA1EB101
:1020A000A0882843A080A9E7A088A843A080A5E72E
:1020B00070B504460D46E84884420BD0E748844298
:1020C00008D0E748844205D040F22621AFF2C40090
:1020D000FEF7F2F9A58191E710B50446DE48844287
:1020E0000BD0DE48844208D0DD48844205D040F25F
:1020F0003621AFF2E800FEF7DFF9A08910BD70B518
:1021000004460D46D44884420BD0D448844208D0BB
:10211000D348844205D04FF41271AFF21010FEF78D
:10212000CBF94FF6FF66B5F5807F07D0B54205D0F5
:1021300040F24921AFF22C10FEF7BEF9B54204D0AF
:10214000208840F48070208058E7208820F4807038
:10215000208053E770B504460D46BF4884420BD03B
:10216000BE48844208D0BE48844205D04FF418715E
:10217000AFF26810FEF7A0F93DB1012D05D040F295
:102180006121AFF27810FEF797F925B1A08840F0F1
:102190000400A08032E7A08820F00400A0802DE792
:1021A00070B504460D46AC4884420BD0AB4884421F
:1021B00008D0AB48844205D040F27A21AFF2B41087
:1021C000FEF77AF9B5F5006F06D02DB140F27B210C
:1021D000AFF2C810FEF770F9208820F4006020806C
:1021E00020882843208009E710B504469A48844295
:1021F0000BD09A48844208D09948844205D040F2D6
:102200008A21AFF2F810FEF757F9208840F4805089
:10221000208010BD70B504460D468F4884420BD017
:102220008E48844208D08E48844205D040F29A21DC
:10223000AFF22820FEF740F93DB1012D05D040F264
:102240009B21AFF23820FEF737F925B1208840F402
:1022500000502080D2E6208820F400502080CDE677
:1022600070B504460D467C4884420BD07B488442BE
:1022700008D07B48844205D040F2B521AFF27420EB
:10228000FEF71AF93DB1012D05D040F2B621AFF2AB
:102290008420FEF711F9012D01D0208BAEE6A08A33
:1022A000ACE610B504466C4884420BD06B488442BF
:1022B00008D06B48844205D040F2CD21AFF2B42063
:1022C000FEF7FAF8208A10BD70B504460D46624844
:1022D00084420BD06148844208D06148844205D0D2
:1022E00040F2DF21AFF2DC20FEF7E6F8A5F53F4033
:1022F0004FF48046FF3807D0B54205D04FF438710F
:10230000AFF2F820FEF7D8F8B54204D1208840F4A7
:102310008040208072E6208820F4804020806DE696
:1023200070B505460C4600264B4885420BD04B48FD
:10233000854208D04A48854205D040F20231AFF2CA
:102340003430FEF7B9F8802C13D0402C11D0202C5B
:102350000FD0102C0DD0082C0BD0042C09D0022C3F
:1023600007D0012C05D040F20331AFF26030FEF708
:10237000A3F82889204200D0012630463EE670B5F9
:1023800004460D46344884420BD03448844208D079
:102390003348844205D040F22731AFF29030FEF747
:1023A0008BF8102D05D04FF44A71AFF2A030FEF734
:1023B00083F8E843208121E670B505460C460026E7
:1023C000254885420BD02548854208D024488542BF
:1023D00005D040F24331AFF2CC30FEF76DF8602CFF
:1023E0000FD0712C0DD0532C0BD0542C09D0552C60
:1023F00007D0562C05D04FF45171AFF2F030FEF7F4
:102400005BF804F00F00012303FA00F291B22009F7
:1024100003FA00F292B2A88810402A890A4201D039
:1024200000B101263046E9E570B504460D460A487C
:1024300084420BD00948844208D00948844205D020
:1024400040F27731AFF23C40FEF736F8542D0DD014
:102450004FF45E7106E0000000300140003800409B
:10246000003C0040AFF25C40FEF726F805F00F019B
:1024700001208840C0432081C0E5000010B504461B
:10248000002C08D0012C06D0022C04D040F20311FD
:10249000F0A0FEF711F8FE49086800F0380020436C
:1024A000086010BD10B50446082C05D024B14FF4C7
:1024B0008E71E8A0FEF700F8F548016821F00801E8
:1024C000016001682143016010BD10B50446102C65
:1024D00005D024B140F22F11DEA0FDF7EDFFEC484E
:1024E000016821F01001016001682143016010BD05
:1024F000E748E8494160E84941607047E448E549F8
:102500004160E54941607047E148016941F080015F
:1025100001617047DE48016941F080010161704747
:102520000420DB49CA68D20701D001207047CA687D
:10253000520701D502207047C968C906FBD50320A0
:10254000704700B50346FFF7EBFF02E0FFF7E8FF37
:102550005B1E012801D1002BF8D1002B00D10520F2
:1025600000BD70B50546CD49A5F10060884204D391
:1025700040F2A711B7A0FDF79FFF4FF43026304679
:10258000FFF7DFFF042811D1C14C206940F00200A1
:1025900020616561206940F0400020613046FFF70E
:1025A000D0FF216941F6FD721140216170BD30B547
:1025B0004FF430252846FFF7C4FF042810D1B44C4F
:1025C000206940F004002061206940F04000206153
:1025D0002846FFF7B6FF216941F6FB7211402161E1
:1025E00030BD00B50346FFF79BFF02E0FFF798FF01
:1025F0005B1E012801D1002BF8D1002B00D1052052
:1026000000BD30B54FF430252846FFF7EAFF042817
:1026100010D19F4C206940F004002061206940F0F7
:10262000400020612846FFF7DCFF216941F6FB727C
:102630001140216130BD00209549C969890700D545
:102640000120704770B5A525FFF7F5FF00B1002503
:102650004FF430263046FFF774FF042818D18C4C15
:102660008C48A0608C48A060206940F02000206168
:10267000206940F0400020613046FFF762FF41F6DC
:10268000EF76042805D0052802D021693140216168
:1026900070BD206941F6DF7108402061206940F07B
:1026A000100020617E4805804FF40050FFF749FF7D
:1026B0000528EDD021693140216170BD2DE9F84335
:1026C00004460E46002000907449A4F10060884240
:1026D00004D340F2AF215FA0FDF7EEFE4FF40057A8
:1026E0003846FFF72EFF04280FD1694D286940F0C6
:1026F000010028612680B8464046FFF722FFBF1E32
:10270000042804D0296939402961BDE8F883A41C54
:1027100000940099300C08804046FFF712FF2969A9
:1027200039402961F1E72DE9F04105460E465B4944
:10273000A5F10060884204D340F25E3145A0FDF768
:10274000BBFE4FF400573846FFF7FBFE04280CD1C0
:102750004F4C206940F0010020612E803846FFF781
:10276000F0FE2169BA1E11402161BDE8F0812DE91A
:10277000F04104460E464A48001D844207D0801CA2
:10278000844204D040F2A53132A0FDF795FE4FF40B
:1027900000573846FFF7D5FE0428E6D13C4D3D48AA
:1027A000A8603D48A860286940F010002861268094
:1027B0003846FFF7C6FE0528D7D0296941F6EF72E3
:1027C00011402961D1E72DE9F0470446002C04D1DE
:1027D00040F2D6311FA0FDF76FFEE043C4B2C0F354
:1027E0000725C0F30746070E4FF400594846FFF788
:1027F000A8FE042865D1DFF898802649C8F808109B
:102800002549C8F80810D8F8101041F01001C8F890
:102810001010FF2C05D02248083004804846FFF7EE
:1028200090FE042807D1FF2D05D01D480A300580F1
:102830004846FFF786FE042807D1FF2E05D018482A
:102840000C3006804846FFF77CFE042830D1FF2F6D
:102850002ED027E04C69627261726965735C5354D3
:102860004D3332463130785F53746450657269700D
:10287000685F4472697665725C7372635C73746DD1
:102880003332663130785F666C6173682E630000A6
:102890000020024023016745AB89EFCDFFFF0F0009
:1028A00000F8FF1F82480E3007804846FFF749FEB8
:1028B000052806D0D8F8101041F6EF721140C8F87C
:1028C0001010BDE8F08770B50546002D07D0012D2A
:1028D00005D040F21D41AFF28400FDF7EDFD4FF44D
:1028E00030263046FFF72DFE042818D1724C71486F
:1028F000A0607248A060206940F02000206120693B
:1029000040F0400020613046FFF71BFE41F6DF71CA
:10291000042805D0052802D022690A40226170BD32
:10292000206908402061206940F010002061604863
:1029300015B10021018001E0A52101803046FFF79B
:1029400000FE0528EBD0216941F6EF7211402161AC
:1029500070BD2DE9F04105460C461646012D06D006
:102960002DB140F26341AFF21410FDF7A5FD022C2A
:1029700006D02CB140F26441AFF22810FDF79CFD67
:10298000042E06D02EB140F26541AFF23810FDF7AB
:1029900093FD494F4748B8604848B8604FF4005825
:1029A0004046FFF7CEFD042814D1386940F01000EE
:1029B000386134433E492C43891C44F0F8000880B8
:1029C0004046FFF7BEFD052804D0396941F6EF7295
:1029D00011403961C9E63848C069800870473648F7
:1029E000006A7047002034490968890600D5012033
:1029F000704770B504460D4634F4A05000D12CB990
:102A000040F22D51AFF2B410FDF756FD3DB1012D4E
:102A100005D040F22E51AFF2C410FDF74DFD26480F
:102A20001DB101692143016170BD0169A1430161CB
:102A300070BD70B504460025012C0BD0202C09D0A8
:102A4000042C07D0102C05D040F27A51AFF2FC10C4
:102A5000FDF732FD1848012C05D0C068204200D097
:102A60000125284670BDC069C007FAD00125F8E7E6
:102A700010B5044634F0350000D12CB940F2B651FF
:102A8000AFF23020FDF718FD0B48C46010BD0420E4
:102A90000949CA68D20701D001207047CA685207A5
:102AA00001D502207047C968C906FBD503207047CD
:102AB00000F8FF1F2301674500200240AB89EFCDDE
:102AC0002DE9F05F0446FD4DFD4EFE4FDFF8F88323
:102AD000DFF8F893DFF8F8A3DFF8F8B3AC420FD0D3
:102AE000B4420DD0BC420BD0444509D04C4507D070
:102AF000544505D05C4503D06F21F7A0FDF7DCFC01
:102B0000AC4209D101210420FEF71CFEBDE8F05FB4
:102B100000210420FEF716BEB44209D1012108208D
:102B2000FEF710FEBDE8F05F00210820FEF70ABEA8
:102B3000BC4209D101211020FEF704FEBDE8F05F80
:102B400000211020FEF7FEBD444509D101212020BF
:102B5000FEF7F8FDBDE8F05F00212020FEF7F2BD92
:102B60004C4509D101214020FEF7ECFDBDE8F05FA6
:102B700000214020FEF7E6BD544509D10121802007
:102B8000FEF7E0FDBDE8F05F00218020FEF7DABD32
:102B90005C450AD101210C022046FEF7D3FD2046F8
:102BA000BDE8F05F0021FEF7CDBDBDE8F09F10B598
:102BB00001210846FEF7C6FD0021BDE810400120B6
:102BC000FEF7C0BD2DE9F04104460D460026BB4886
:102BD000844215D0BA48844212D0BA4884420FD0F9
:102BE000B94884420CD0B948844209D0B8488442DC
:102BF00006D0B848844203D0B221B7A0FDF75CFCF0
:102C0000E87888B104280FD028280DD048280BD0A8
:102C1000142809D0102807D01C2805D0182803D064
:102C2000B321ADA0FDF748FC288818B9B421AAA0AB
:102C3000FDF742FCE87800F00F07C0060CD5A87835
:102C4000012807D0022805D0032803D0BB21A2A069
:102C5000FDF732FCA878074328784FF00F0310F0F7
:102C6000FF0F4FF0010C1CD020680CFA06F12A88E7
:102C70000A408A4211D1B20003FA02F820EA0800A1
:102C800007FA02F848EA0000EA78282A02D0482A1F
:102C900002D002E0616100E02161761C082EE4D3DD
:102CA00020602888FF281ED96268002000F10806ED
:102CB0000CFA06F12E880E408E4210D1860003FADF
:102CC00006F822EA080207FA06F848EA0202EE7855
:102CD000282E00D16161EE78482E00D12161401C80
:102CE0000828E3D36260BDE8F0814FF6FF710180F0
:102CF000022181700421C170704770B505460C46F1
:102D000000266E48854216D06D48854213D06D4826
:102D1000854210D06C4885420DD06C4885420AD05F
:102D20006B48854207D06B48854204D04FF48F71C1
:102D300069A0FDF7C1FB012C2AD0022C28D0042C5D
:102D400026D0082C24D0102C22D0202C20D0402C8F
:102D50001ED0802C1CD0B4F5807F19D0B4F5007F34
:102D600016D0B4F5806F13D0B4F5006F10D0B4F561
:102D7000805F0DD0B4F5005F0AD0B4F5804F07D066
:102D8000B4F5004F04D040F21F1153A0FDF794FB9F
:102D9000A868204200D00126304670BD10B5044618
:102DA0004648844216D04648844213D0454884425F
:102DB00010D0454884420DD0444884420AD044484B
:102DC000844207D04348844204D04FF49A7142A011
:102DD000FDF772FBA06880B210BD70B505460C46C9
:102DE00000263648854216D03548854213D03548EE
:102DF000854210D0344885420DD0344885420AD0EF
:102E00003348854207D03348854204D04FF4A2713D
:102E100031A0FDF751FB012C2AD0022C28D0042C24
:102E200026D0082C24D0102C22D0202C20D0402CAE
:102E30001ED0802C1CD0B4F5807F19D0B4F5007F53
:102E400016D0B4F5806F13D0B4F5006F10D0B4F580
:102E5000805F0DD0B4F5005F0AD0B4F5804F07D085
:102E6000B4F5004F04D040F245111BA0FDF724FB40
:102E7000E868204200D00126304670BD10B50446F7
:102E80000E48844216D00E48844213D00D48844226
:102E900010D00D4884420DD00C4884420AD00C4812
:102EA000844207D00B48844204D04FF4AD710AA08D
:102EB000FDF702FBE06880B210BD00000008014091
:102EC000000C0140001001400014014000180140B6
:102ED000001C0140002001404C696272617269650A
:102EE000735C53544D3332463130785F53746450C1
:102EF00065726970685F4472697665725C7372634B
:102F00005C73746D3332663130785F6770696F2E31
:102F10006300000070B504460D46FE48844217D099
:102F2000FD48844214D0FD48844211D0FC488442BC
:102F30000ED0FC4884420BD0FB48844208D0FB48AA
:102F4000844205D040F26911AFF27400FDF7B4FA83
:102F50002DB94FF4B571AFF28000FDF7ADFA2561E0
:102F600070BD70B504460D46EA48844217D0EA4861
:102F7000844214D0E948844211D0E94884420ED0FA
:102F8000E84884420BD0E848844208D0E7488442AD
:102F900005D040F27911AFF2C000FDF78DFA2DB9DE
:102FA0004FF4BD71AFF2D000FDF786FA656170BDD8
:102FB00070B505460C461646D648854217D0D64809
:102FC000854214D0D548854211D0D54885420ED0CF
:102FD000D44885420BD0D448854208D0D348854296
:102FE00005D040F28D11AFF21010FDF765FA012CFB
:102FF0002BD0022C29D0042C27D0082C25D0102C23
:1030000023D0202C21D0402C1FD0802C1DD0B4F5F3
:10301000807F1AD0B4F5007F17D0B4F5806F14D03C
:10302000B4F5006F11D0B4F5805F0ED0B4F5005F39
:103030000BD0B4F5804F08D0B4F5004F05D04FF455
:10304000C771AFF26C10FDF737FA3EB1012E05D013
:1030500040F28F11AFF28010FDF72EFA0EB12C6105
:1030600070BD6C6170BD70B504460D46A9488442C0
:1030700017D0A948844214D0A848844211D0A84847
:1030800084420ED0A74884420BD0A748844208D07F
:10309000A648844205D04FF4D271AFF2C410FDF7B8
:1030A0000BFAE56070BD70B504460D469948844240
:1030B00017D09948844214D09848844211D0984837
:1030C00084420ED0974884420BD09748844208D05F
:1030D0009648844205D040F2B511AFF20420FDF7C6
:1030E000EBF92DB94FF4DB71AFF21420FDF7E4F9E1
:1030F00045F48030A061A561A061A069A06970BDA0
:1031000070B505460C46002D0DD0012D0BD0022DBB
:1031100009D0032D07D0042D05D04FF4E971AFF28B
:103120004820FDF7C9F91CB3012C21D0022C1FD077
:10313000032C1DD0042C1BD0052C19D0062C17D025
:10314000072C15D0082C13D0092C11D00A2C0FD025
:103150000B2C0DD00C2C0BD00D2C09D00E2C07D025
:103160000F2C05D040F2D311AFF29420FDF7A4F953
:103170006F4908684FF68072104040EA05102043FE
:10318000086070BD10B50446002C07D0012C05D096
:103190004FF4F371AFF2C020FDF78EF96548C461BA
:1031A0008AE62DE9F04104460E46012C7ED0022C21
:1031B0007CD0042C7AD0082C78D0A4F5A01010383C
:1031C00074D0A4F5A010303870D0A4F5B0104038F9
:1031D0006CD0A4F5B010C0387ED0574884427BD064
:1031E0005648844278D05648844275D05548844227
:1031F00072D0554884426FD0B4F5805F6CD0B4F57E
:10320000EA1F69D0B4F5EB1F66D0B4F5004F63D068
:103210006FF40010C4425FD0A4F50010801E5BD094
:10322000A4F50010001F57D0A4F50010083853D0A3
:10323000A4F5001010384FD0B4F1201F4CD0A4F5E5
:103240000010403848D04148844245D0404884422C
:1032500042D0404884423FD03F4884423CD03F481F
:10326000844239D0B4F5011F36D06FF00040C4421B
:1032700032D0C01C84422FD0801C84422CD0001D30
:10328000844229D03648844226D0354810308442C2
:1032900022D03348303084421ED0314870308442CE
:1032A0001AD02F48F030844216D000E014E02D48A8
:1032B000844211D02C4884420ED02C4884420BD03A
:1032C0002B48844208D02B48844205D040F22A2162
:1032D000AFF2FC30FDF7F0F83EB1012E05D040F220
:1032E0002B21AFF20C40FDF7E7F8114B002C01DA6F
:1032F000DA6900E05A68C4F30341600D0001A5B229
:10330000C4F301578540032F3AD0E0023FD5032094
:10331000884031E000080140000C014000100140ED
:103320000014014000180140001C01400020014031
:1033300000000140000020420001180000021800B7
:103340000003180000081A00000C1A0000013000E9
:103350000002300000043000001120000020200096
:10336000100000800002008000040080000800803F
:103370000010008000200080824342F0706009E06D
:1033800022F07060596821F07061596002E0AA4330
:1033900042F0706006B12843002C01DAD861A2E443
:1033A0005860A0E470B505460C46002D11D0012DE3
:1033B0000FD0022D0DD0032D0BD0042D09D0052DDB
:1033C00007D0062D05D040F26521AFF2F440FDF79D
:1033D00073F81CB3012C21D0022C1FD0032C1DD05C
:1033E000042C1BD0052C19D0062C17D0072C15D077
:1033F000082C13D0092C11D00A2C0FD00B2C0DD077
:103400000C2C0BD00D2C09D00E2C07D00F2C05D076
:1034100040F26621AFF24050FDF74EF8A007010FD1
:103420000F228A400D4824F0030318448368934315
:10343000836082688D402A43826070BD10B5044667
:10344000002C07D0012C05D04FF41E71AFF278503C
:10345000FDF732F8024804602EE50000000001404C
:10346000DC0020422DE9F0470446FD4DFD4EFE4FA5
:10347000DFF8F883DFF8F893AC420BD0B44209D000
:10348000BC4207D0444505D04C4503D08521F9A066
:10349000FDF712F8AC420AD101218C032046FEF759
:1034A00051F92046BDE8F0470021FEF74BB9B44280
:1034B0000AD101214C042046FEF764F92046BDE8FC
:1034C000F0470021FEF75EB9BC420AD101218C040D
:1034D0002046FEF757F92046BDE8F0470021FEF7E9
:1034E00051B944450AD10121CC042046FEF74AF9DE
:1034F0002046BDE8F0470021FEF744B94C450AD10B
:1035000001210C052046FEF73DF92046BDE8F047B5
:103510000021FEF737B9BDE8F0872DE9F04385B00B
:1035200004460D46CE4ECF4FDFF83C83B4420DD05B
:10353000BC420BD0444509D0CC48844206D0CC488C
:10354000844203D0B821CBA0FCF7B6FF2868D84945
:10355000401E884203D3B921C6A0FCF7ADFFA8885E
:103560004FF4805928B1484503D0BA21C1A0FCF7D7
:10357000A3FFE88858B1484509D0B0F5005F06D0F0
:10358000B0F5405F03D0BB21BAA0FCF795FF2889B6
:1035900048B1B0F5806F06D0B0F5C06F03D0BC2144
:1035A000B4A0FCF789FF688930F00C0100D118B98C
:1035B000BD21B0A0FCF780FFA88960B1B0F5807F85
:1035C00009D0B0F5007F06D0B0F5407F03D0BE2112
:1035D000A8A0FCF771FFA88948B1B44207D0BC424B
:1035E00005D0444503D0C221A2A0FCF765FF208A84
:1035F0004CF6FF710840E98801432182A0894EF60C
:10360000F3110840A9882A8911436A8902431143AA
:10361000A181A08A4FF6FF410840A9890143A182F8
:103620006846FDF7E0FFB44201D1039800E002983C
:10363000A189090408D500EBC00101EB001029683D
:103640004900B0FBF1F007E000EBC00101EB001016
:1036500029688900B0FBF1F06422B0FBF2F10901A6
:103660000B096FF018056B4300EB8300A3891D0461
:103670004FF0320307D503EBC000B0FBF2F000F0CF
:103680000700084306E003EB0010B0FBF2F000F087
:103690000F000843208105B0BDE8F0834FF41651B8
:1036A000016000218180C18001810C2242818181E1
:1036B000704770B505460C46694885420AD069488E
:1036C000854207D06848854204D04FF4997169A0BB
:1036D000FCF7F2FE208838B1B0F5006F04D040F25C
:1036E000331164A0FCF7E8FE608838B1B0F5806F54
:1036F00004D04FF49A715FA0FCF7DEFEA08838B1C9
:10370000B0F5007F04D040F235115AA0FCF7D4FE8A
:10371000E08838B1B0F5807F04D04FF49B7155A09C
:10372000FCF7CAFE298A4FF2FF0001402088628818
:10373000E3881043A2881A4310430843288270BDCF
:103740000021018041808180C180704770B50446AE
:103750000D464348844210D0424884420DD042482E
:1037600084420AD04148844207D04148844204D070
:103770004FF4B1713FA0FCF79FFE35B1012D04D08D
:1037800040F263113BA0FCF797FE25B1A08940F4FD
:103790000050A08170BDA08920F40050A08170BDB0
:1037A0002DE9F04705460C461646DFF8B480DFF8F1
:1037B000B490DFF8B4A045450ED04D450CD055452A
:1037C0000AD02A48854207D02948854204D040F2D1
:1037D000891128A0FCF770FE40F66A17282C1CD02F
:1037E000A4F5E060273818D0A4F5C060263814D0BE
:1037F000A4F5A060253810D0A4F5806024380CD042
:10380000A4F50060463808D0BC4206D0602C04D035
:103810004FF4C57117A0FCF74FFE36B1012E04D04E
:1038200040F28B1113A0FCF747FEBC420AD145457C
:1038300008D04D4506D0554504D040F28F110DA05B
:10384000FCF73AFEC4F3421104F01F02012090403D
:10385000012933D0022933D014355EB329682AE018
:10386000003801400044004000480040004C004047
:10387000005000404C69627261726965735C535418
:103880004D3332463130785F5374645065726970DD
:10389000685F4472697665725C7372635C73746DA1
:1038A0003332663130785F75736172742E63000055
:1038B00020AA440006E0014329602CE60C35CCE741
:1038C0001035CAE729688143296024E670B50446AB
:1038D0000D461646FE48844211D0FE4884420ED062
:1038E000FD4884420BD0FD48844208D0FC48844205
:1038F00005D040F2C311AFF28400FCF7DDFD35F0D6
:10390000C00000D12DB94FF4E271AFF29800FCF77E
:10391000D3FD3EB1012E05D040F2C511AFF2AC008F
:10392000FCF7CAFD1EB1A08A2843A08270BDA08A00
:10393000A843A08270BD70B504460D46E448844299
:1039400011D0E44884420ED0E34884420BD0E348CF
:10395000844208D0E248844205D040F2DF11AFF241
:10396000EC00FCF7A9FD0F2D05D94FF4F071AFF273
:10397000FC00FCF7A1FD208A20F00F002082208AA5
:103980002843208270BD70B504460D46D04884425D
:1039900011D0D04884420ED0CF4884420BD0CF48BB
:1039A000844208D0CE48844205D04FF4FB71AFF278
:1039B0003C10FCF781FD45B1B5F5006F05D040F234
:1039C000F711AFF25010FCF777FDA08920F40060EA
:1039D000A081A0892843A08170BD70B504460D4622
:1039E000BB48844211D0BB4884420ED0BA488442BE
:1039F0000BD0BA48844208D0B948844205D040F27E
:103A00000921AFF29010FCF757FD3DB1012D05D013
:103A100040F20A21AFF2A410FCF74EFD25B1A089B7
:103A200040F00200A08170BDA08920F00200A081BA
:103A300070BD70B504460D46A548844211D0A54816
:103A400084420ED0A44884420BD0A448844208D0BB
:103A5000A348844205D040F22621AFF2E810FCF7DB
:103A60002BFD3DB1202D05D040F22721AFF2FC10F7
:103A7000FCF722FD208A20F020002082208A2843A3
:103A8000208270BD70B504460D469148844211D025
:103A9000904884420ED0904884420BD08F48844294
:103AA00008D08F48844205D040F23921AFF23C2043
:103AB000FCF702FD3DB1012D05D040F23A21AFF2F5
:103AC0004C20FCF7F9FC25B1208A40F4804020828C
:103AD00070BD208A20F48040208270BD70B50446FD
:103AE0000D467B48844211D07A4884420ED07A48F1
:103AF00084420BD07948844208D07948844205D06A
:103B000040F25321AFF29420FCF7D6FCB5F5007FCC
:103B100005D34FF41571AFF2A420FCF7CDFCC5F32B
:103B20000800A08070BD10B504466948844211D0D9
:103B3000684884420ED0684884420BD0674884426B
:103B400008D06748844205D04FF41971AFF2DC20E9
:103B5000FCF7B2FCA088C0F3080010BD10B5044605
:103B60005B48844211D05B4884420ED05A4884425C
:103B70000BD05A48844208D05948844205D04FF4AB
:103B80001D71AFF21030FCF797FCA08940F00100E6
:103B9000A08110BD70B504460D464D4884420BD03F
:103BA0004C48844208D04C48844205D04FF42171DF
:103BB000AFF24030FCF780FC208BC0B22083208B1A
:103BC00040EA0520208370BD70B504460D4640488C
:103BD000844211D03F4884420ED03F4884420BD0EB
:103BE0003E48844208D03E48844205D04FF42671B6
:103BF000AFF28030FCF760FC208B00F47F40208324
:103C0000208B2843208370BD70B504460D46304894
:103C100084420BD02F48844208D02F48844205D0DC
:103C200040F2AB21AFF2B430FCF746FC3DB1012DC0
:103C300005D04FF42B71AFF2C430FCF73DFC25B139
:103C4000A08A40F02000A08270BDA08A20F0200051
:103C5000A08270BD70B504460D461D4884420BD04D
:103C60001C48844208D01C48844205D04FF431716E
:103C7000AFF20040FCF720FC3DB1012D05D040F231
:103C8000C521AFF21040FCF717FC25B1A08A40F027
:103C90001000A08270BDA08A20F01000A08270BD2C
:103CA00070B504460D460A4884421DD00948844236
:103CB0001AD00948844217D00848844214D00848D2
:103CC000844211D040F2DE21AFF258400AE00000F9
:103CD000003801400044004000480040004C0040D3
:103CE00000500040FCF7E8FB3DB1012D05D040F24B
:103CF000DF21AFF28040FCF7DFFB25B1A08A40F066
:103D00000800A08270BDA08A20F00800A08270BDCB
:103D100070B504460D46F148844211D0F048844203
:103D20000ED0F04884420BD0EF48844208D0EF48D0
:103D3000844205D040F2FD21AFF2C840FCF7BCFB45
:103D40003DB1012D05D040F2FE21AFF2D840FCF785
:103D5000B3FB25B1A08940F40040A08170BDA089CB
:103D6000C0F30E00A08170BD70B504460D46DB485F
:103D7000844211D0DA4884420ED0DA4884420BD013
:103D8000D948844208D0D948844205D04FF44671BE
:103D9000AFF22050FCF790FB3DB1012D05D040F271
:103DA0001931AFF23050FCF787FB25B1A08A40F4FF
:103DB0000060A08270BDA08A20F40060A08270BD67
:103DC00070B504460D46C548844211D0C4488442AB
:103DD0000ED0C44884420BD0C348844208D0C348A4
:103DE000844205D040F23531AFF27850FCF764FBE5
:103DF000042D06D02DB140F23631AFF28850FCF7D9
:103E00005BFBA08A20F00400A082A08A2843A08245
:103E100070BD70B504460D46B048844211D0B0481C
:103E200084420ED0AF4884420BD0AF48844208D0C1
:103E3000AE48844205D04FF45271AFF2C850FCF73F
:103E40003BFB3DB1012D05D040F24931AFF2DC50D2
:103E5000FCF732FB25B1A08A40F00200A08270BDC1
:103E6000A08A20F00200A08270BD2DE9F04705462F
:103E70000C460026994FDFF86882DFF86892BD4251
:103E80000FD045450DD04D450BD09748854208D001
:103E90009648854205D040F26E31AFF22860FCF7BB
:103EA0000BFB4FF4007A012C18D0802C16D0402C3C
:103EB00014D0202C12D0102C10D0B4F5807F0DD04F
:103EC00054450BD0082C09D0042C07D0022C05D067
:103ED00040F26F31AFF26460FCF7EEFA54450BD15B
:103EE000BD4209D0454507D04D4505D040F273315C
:103EF000AFF28060FCF7E0FA2888204200D001266B
:103F00003046DAE42DE9F04104460D46734E744F15
:103F1000DFF8D081B4420FD0BC420DD044450BD065
:103F20007148844208D07148844205D040F29E31E5
:103F3000AFF2C060FCF7C0FA35F4587000D12DB96B
:103F400040F29F31AFF2D460FCF7B6FAA8050BD56A
:103F5000B44209D0BC4207D0444505D040F2A33159
:103F6000AFF2F060FCF7A8FAE8432080BDE8F081EA
:103F70002DE9F04705460C460026DFF86081DFF8A2
:103F80006091DFF860A145450FD04D450DD05545F6
:103F90000BD05548854208D05448854205D040F2A0
:103FA000C131AFF23070FCF787FA40F66A17282C5F
:103FB00024D0A4F5E060273820D0A4F5C0602638CE
:103FC0001CD0A4F5A060253818D0A4F58060243852
:103FD00014D0A4F50060463810D0BC420ED0B4F521
:103FE000587F0BD0B4F5187F08D0B4F5B07F05D05A
:103FF00040F2C231AFF28470FCF75EFABC420BD1E2
:10400000454509D04D4507D0554505D040F2C6314C
:10401000AFF2A070FCF750FAC4F3421104F01F0293
:10402000012303FA02F001290CD002290DD0A98A3C
:104030000140220A93402A881A4009B102B10126A0
:1040400030463AE4A9890140F3E7298A0140F0E7C4
:104050002DE9F04704460D46204FDFF88480DFF855
:104060008490BC420FD044450DD04C450BD01E4827
:10407000844208D01D48844205D040F20A41AFF680
:104080000C00FCF719FAA5F5C06040F66A16263850
:104090000FD0A5F5A06025380BD0A5F500604638F7
:1040A00007D0B54205D040F20B41AFF63800FCF71F
:1040B00003FAB5420BD1BC4209D0444507D04C4568
:1040C00005D040F20F41AFF65400FCF7F5F9290A8C
:1040D00001208840C043208013E7000000380140E1
:1040E0000044004000480040004C004000500040A8
:1040F0002DE9F05F0446FA4EF94FF94DDFF8E08301
:10410000DFF8DC93DFF8D8A3DFF8D4B31436283710
:1041100008F13C0809F150090AF1640A0BF1780B27
:10412000AC4222D0B44220D0BC421ED044451CD068
:104130004C451AD0544518D05C4516D0E948844205
:1041400013D0E848143084420FD0E6482830844227
:104150000BD0E4483C30844207D0E24850308442DF
:1041600003D06F21E0A0FCF7A7F920684FF6FE719D
:1041700008402060002020606060A060E060D848B7
:104180000838AC4205D1416841F00F014160BDE8FB
:10419000F09FB44204D1416841F0F0014160F6E77C
:1041A000BC4204D1416841F470614160EFE744458D
:1041B00004D1416841F470414160E8E74C4504D1C5
:1041C000416841F470214160E1E7544504D1416800
:1041D00041F470014160DAE75C4504D1416841F087
:1041E00070614160D3E7BF49081F8C4204D1016868
:1041F00041F00F010160CAE7BA4914318C4204D181
:10420000016841F0F0010160C1E7B64928318C42F4
:1042100004D1016841F470610160B8E7B1493C31F3
:104220008C4204D1016841F470410160AFE7AD49AF
:1042300050318C42ABD1016841F470210160A6E796
:1042400070B505460C46A64885422ED0A4481430C9
:1042500085422AD0A2482830854226D0A0483C304A
:10426000854222D09E48503085421ED09C48643002
:1042700085421AD09A487830854216D099488542AE
:1042800013D09848143085420FD096482830854284
:104290000BD094483C30854207D09248503085423C
:1042A00003D0CF2190A0FCF707F9A068102804D014
:1042B00018B1D0218CA0FCF7FFF8E0684FF6FF7131
:1042C000401E884203D3D12187A0FCF7F5F820696E
:1042D000402804D018B1D22183A0FCF7EDF8606922
:1042E000802804D018B1D3217FA0FCF7E5F8A0699D
:1042F00048B1B0F5807F06D0B0F5007F03D0D4215F
:1043000079A0FCF7D9F8E06948B1B0F5806F06D024
:10431000B0F5006F03D0D52173A0FCF7CDF8206A6B
:10432000202804D018B1D6216FA0FCF7C5F8606A28
:10433000B0F5405F0AD0B0F5005F07D0B0F5805F00
:1043400004D018B1D72168A0FCF7B6F8A06AB0F580
:10435000804F04D018B1D82163A0FCF7ADF82968CC
:1043600047F6F0708143226AA0681043D4E9042321
:104370001A431043A2691043E2691043626A104372
:10438000A26A104308432860E06868602068A8605B
:104390006068E86070BD0021016041608160C160BB
:1043A000016141618161C161016241628162704765
:1043B00070B504460D464A4884422FD04848143010
:1043C00084422BD046482830844227D044483C3091
:1043D000844223D04248503084421FD04048643049
:1043E00084421BD03E487830844217D03D488442F6
:1043F00014D03C481430844210D03A4828308442CB
:104400000CD038483C30844208D036485030844282
:1044100004D040F2291134A0FCF74EF835B1012D3B
:1044200004D04FF4957130A0FCF746F825B1206810
:1044300040F00100206070BD20684FF6FE7108401A
:10444000206070BD70B504460D461646244884426F
:104450002FD02348143084422BD021482830844266
:1044600027D01F483C30844223D01D48503084421E
:104470001FD01B48643084421BD0194878308442D6
:1044800017D01848844214D016481430844210D0F3
:104490001448283084420CD012483C30844208D062
:1044A00010485030844204D040F249110EA0FCF76D
:1044B00003F835F00E0000D125B94FF4A5710AA01C
:1044C000FBF7FAFF36B1012E04D040F24B1106A0E3
:1044D000FBF7F2FF1EB120682843206070BD21E089
:1044E00008000240080402404C696272617269650A
:1044F000735C53544D3332463130785F537464509B
:1045000065726970685F4472697665725C73726324
:104510005C73746D3332663130785F646D612E6325
:10452000000000002068A8432060D7E770B504466B
:104530000D46F748844230D0F548143084422CD0E0
:10454000F3482830844228D0F1483C30844224D0BB
:10455000EF485030844220D0ED48643084421CD073
:10456000EB487830844218D0EA48844215D0E948B4
:104570001430844211D0E748283084420DD0E548F9
:104580003C30844209D0E3485030844205D04FF497
:10459000B271AFF2AC00FBF78FFF65609EE710B51C
:1045A0000446DB48844230D0D948143084422CD0B1
:1045B000D7482830844228D0D5483C30844224D083
:1045C000D3485030844220D0D148643084421CD03B
:1045D000CF487830844218D0CE48844215D0CD4898
:1045E0001430844211D0CB48283084420DD0C948C1
:1045F0003C30844209D0C7485030844205D04FF443
:10460000BB71AFF21C10FBF757FF606880B210BDA2
:1046100070B504460025012C7ED0022C7CD0042CE1
:104620007AD0082C78D0102C76D0202C74D0402C46
:1046300072D0802C70D0B4F5807F6DD0B4F5007F3F
:104640006AD0B4F5806F7FD0B4F5006F7CD0B4F53C
:10465000805F79D0B4F5005F76D0B4F5804F73D029
:10466000B4F5004F70D0B4F5803F6DD0B4F5003F85
:104670006AD0B4F5802F67D0B4F5002F64D0B4F5BC
:10468000801F61D0B4F5001F5ED0B4F5800F5BD001
:10469000B4F5000F58D0B4F1807F55D0B4F1007F4D
:1046A00052D0B4F1806F4FD0B4F1006F4CD06FF0A6
:1046B0008050C44248D0A4F18050801E44D0A4F160
:1046C0008050001F40D0A4F1805008383CD0A4F1A5
:1046D0008050103838D0A4F18050203834D0A4F164
:1046E0008050403830D0A4F1805080382CD08A4897
:1046F000844229D08948844226D08948844223D0E4
:104700008848844220D0B4F1102F1DD04FEAF030F9
:10471000844219D0844800E016E0844214D08348D3
:10472000844211D0824884420ED0824884420BD009
:104730008148844208D08148844205D040F2B711B4
:10474000AFF25C20FBF7B8FEE00003D571480838F3
:10475000006802E06E4808380068204200D0012559
:104760002846BBE610B50446200F02D07448044228
:1047700000D12CB940F20E21AFF29420FBF79CFE41
:10478000E00003D56348001F046010BD604808388E
:10479000446010BD70B504460025012C7ED0022C6B
:1047A0007CD0042C7AD0082C78D0102C76D0202CF9
:1047B00074D0402C72D0802C70D0B4F5807F6DD036
:1047C000B4F5007F6AD0B4F5806F7FD0B4F5006F88
:1047D0007CD0B4F5805F79D0B4F5005F76D0B4F5C5
:1047E000804F73D0B4F5004F70D0B4F5803F6DD0DA
:1047F000B4F5003F6AD0B4F5802F67D0B4F5002F30
:1048000064D0B4F5801F61D0B4F5001F5ED0B4F55C
:10481000800F5BD0B4F5000F58D0B4F1807F55D035
:10482000B4F1007F52D0B4F1806F4FD0B4F1006F7B
:104830004CD06FF08050C44248D0A4F18050801E0C
:1048400044D0A4F18050001F40D0A4F1805008381B
:104850003CD0A4F18050103838D0A4F180502038DA
:1048600034D0A4F18050403830D0A4F1805080384A
:104870002CD02948844229D02848844226D0284870
:10488000844223D02748844220D0B4F1102F1DD079
:104890004FEAF030844219D0234800E016E0844209
:1048A00014D02248844211D0214884420ED021489D
:1048B00084420BD02048844208D02048844205D04E
:1048C00040F25921AFF2E030FBF7F6FDE00003D5EE
:1048D00010480838006802E00D4808380068204297
:1048E00000D001252846F9E510B50446200F02D076
:1048F0001348044200D12CB940F2AF21AFF2184066
:10490000FBF7DAFDE0001DD50248001F046010BD72
:1049100008000240080402400001001000020010DC
:10492000000400100008001000400010008000107B
:104930000000011000000210000004100000081028
:104940000000F0EF01484460E1E700000000024091
:1049500010B50446B4F5E06F0FD0B4F5C06F0CD0BD
:10496000B4F5A06F09D0B4F5806F06D0B4F5407FE0
:1049700003D0632150A0FBF79FFD5B4804435B48D5
:10498000046010BD70B504460F25E078002805D0FE
:10499000012803D0752148A0FBF78EFD6078102810
:1049A00003D3762144A0FBF787FDA078102803D31A
:1049B000772141A0FBF780FDE0780123F8B14B4857
:1049C000006800F4E060C0F5E060000AC0F1040295
:1049D000C54061789140A0782840084300012178C3
:1049E00001F1E02181F80004207800F01F018B40E4
:1049F0004009800000F1E020C0F8003170BD20784F
:104A000000F01F018B404009800000F1E020C0F859
:104A1000803170BD70B504460D46B4F1005F06D01C
:104A2000B4F1006F03D09F2123A0FBF745FD304870
:104A3000854203D3A02120A0FBF73EFD2D48054071
:104A40002A482543001F056070BD70B504460D4619
:104A5000102C07D0042C05D0022C03D0B22116A0B4
:104A6000FBF72AFD2DB1012D03D0B32112A0FBF7D6
:104A700023FD1E48001D1DB101682143016070BD6A
:104A80000168A143016070BD10B50446042C05D037
:104A9000601D03D0CA2108A0FBF70EFD4FF0E020F7
:104AA000042C04D0016921F00401016110BD0169E9
:104AB00041F00401016110BD4C6962726172696567
:104AC000735C53544D3332463130785F53746450C5
:104AD00065726970685F4472697665725C7372634F
:104AE0005C6D6973632E63000000FA050CED00E055
:104AF000FFFF0F0080FFFF1F09488047094800475C
:104B0000FEE7FEE7FEE7FEE7FEE7FEE7FEE7FEE77D
:104B1000FEE7FEE704480549054A064B70470000DA
:104B2000BD100008310100080812002008180020FC
:104B300008140020081400207047184800687047C7
:104B400010B5044602F036FB14490C60BDE8104075
:104B500002F034BB10B511490868401C086001F030
:104B6000E9FF816C491E816419B9416C816402F0CE
:104B70007FF8BDE8104002F076BA002802DA4FF064
:104B8000FF30704740F27121484340F2E73101EBBA
:104B90000010491C90FBF1F0704700004801002014
:104BA00000207047002070470020704700207047A9
:104BB00070B5094C094D02E020688047241DAC42C5
:104BC000FAD370BD70B5054C054D02E020688047F2
:104BD000241DAC42FAD370BD1CDF000828DF00089A
:104BE00030DF00082DE9F041074601F0A3FF08B1CE
:104BF00001F0DBFE082001F041FD4468051D08E0DE
:104C0000A4F10C0608223946304601F003F950B1F0
:104C10002468AC42F4D101F08DFF08B101F0D0FE60
:104C20000020BDE8F08101F085FF08B101F0C8FE69
:104C30003046F6E72DE9F04104460F4615464FF0A1
:104C4000FF36002C05D03846FFF7CCFF18B13046B0
:104C5000E7E73046E5E73A460821204601F01EFD29
:104C6000E5820020A0762083DBE710B501F039FD56
:104C7000002010BD0020704770B50546C91C21F00A
:104C80000300403001F0A2FB04462CB14022002179
:104C9000204600F0FFFF2575204670BD10B5044684
:104CA000204601F01EFD2046BDE8104001F012BC78
:104CB00010B504460020616A00290AD0A27DD20600
:104CC00007D420468847002803D1E18A41F010012B
:104CD000E18210BD70B504460D460020A17DC906D5
:104CE00009D4626A1AB12046904700280BD1E18AA4
:104CF00041F01001E182A17D090705D5217E090758
:104D000002D56FF0060070BDA26A1AB1294620468E
:104D1000904703E040F60F710D40258308B1811DD7
:104D2000F1D1218B41F008012183A17E491CA1769C
:104D300070BD10B504460020A17E002904D0491E94
:104D4000C9B2A17619B110BD4FF0FF3010BDE16AB4
:104D500009B12046884708B1811DF7D10021218380
:104D600010BD10B5847E002C05D0046B4CB1A44658
:104D7000BDE8104060474FF0FF3000F06FFF0020AB
:104D800010BD6FF0050000F069FF002010BD10B5E8
:104D9000847E002C05D0446B4CB1A446BDE8104085
:104DA00060474FF0FF3000F059FF002010BD6FF05A
:104DB000050000F053FF002010BD836B002B00D0D6
:104DC00018476FF005007047C1610020704701620D
:104DD0000020704770B505466FF0020402F0EAF952
:104DE00003460021494A52F8210038B1491C0429E0
:104DF000F9D3184602F0E2F9204670BD42F821507E
:104E00000024F6E770B504466FF0050502F0D2F90C
:104E1000034600213D4850F82120A24204D100223F
:104E200040F82120002502E0491C0429F3D318464C
:104E300002F0C4F9284670BD70B527E002F0BAF957
:104E4000064600F05BF868B331480468A4F1140525
:104E5000D4E900104860D4E900010860646024606F
:104E600001F0A3FDA96F09B128468847284601F043
:104E700096FC01280FD001F0A3FD304602F09EF908
:104E8000A86A01F027FB284601F070FC00F036F814
:104E90000028D3D170BD01F093FD3046BDE87040CD
:104EA00002F08CB93046BDE8704002F087B9174D6A
:104EB00008E055F8240000B18047641C042CF8D3A6
:104EC000FFF7BAFF0024F4E71FB52020C2001F211E
:104ED000104BCDE90210CDE900320E4800230E4AF6
:104EE0000EA1803801F00AFE04B00A48BDE8104067
:104EF000803801F045BE0748803870470448016893
:104F0000814201D0012070470020704750090020E5
:104F10003002002050080020AF4E00087469646C15
:104F2000650000002DE9F04105460E461446304666
:104F300001F0CAFE06F1140714B1012C1DD104E0E2
:104F40003946284600F034FE17E02C680DE0A4F145
:104F5000140096F8351090F83520914204D2394665
:104F6000143000F025FE02E02468AC42EFD1AC42E0
:104F700003D13946284600F01BFE0020BDE8F08131
:104F800070B505464FF0FF340AE002F013F906460B
:104F900028681438046301F0D0FD304602F00EF9A1
:104FA000284600F00CFE0028EFD0002070BD2DE94F
:104FB000F041054616461F460A460121284601F0E3
:104FC0006DFB2C46143464602460AE836F72002045
:104FD000D4E710B5044604F11400FFF7D1FF2046D2
:104FE00001F07FFB002010BD70B50C461546014650
:104FF000012001F08CFB002805D000F1140149606C
:1050000009608483457270BD10B5044604F1140034
:10501000FFF7B6FF204601F0A9FB002010BD2DE9E7
:10502000F3410446FB480168002901D02046884727
:1050300002F0C0F80646A08B28B1401EA08330467F
:1050400002F0BCF821E0019838B301F073FD054689
:1050500000202863627A294604F11400FFF762FFFA
:105060000198002809DD05F14C0001AA002107463E
:1050700001F0DFFF384601F053FF304602F09EF8A2
:1050800001F00CFC286B002805D1E348016809B148
:10509000204688470020BDE8FC81304602F08EF8AB
:1050A0006FF00100F7E70021B9E72DE9F041044670
:1050B000DA480168002901D020468847002502F01F
:1050C00079F8064604F11400074600F078FD40B177
:1050D000A08B401CA083304602F070F8012D05D053
:1050E00006E0384600F072FD0125F4E701F0D6FB3A
:1050F000002043E770B505461446012902D04FF061
:10510000FF3070BD02F056F8064605F11400FFF7B7
:1051100037FFAC83304602F051F801F0BFFB0020AE
:1051200070BD70B5044615460A460221204601F0BE
:10513000B5FA20461430406000600120A0830020B2
:105140002062FF21A177E077657270BD10B504463B
:1051500004F11400FFF714FF204601F0C2FA00200A
:1051600010BD10B50C460146022001F0D0FA00280F
:105170000BD000F1140149600960012181830021F5
:105180000162FF228277C177447210BD10B50446D8
:1051900004F11400FFF7F4FE204601F0E7FA0020C6
:1051A00010BD2DE9F341044601F0C4FC054602F0B0
:1051B00001F806469748016809B120468847002053
:1051C0002863206AA84203D1E07F401CE07743E0D7
:1051D000A08B50B1A08B401EA083256295F83500AE
:1051E000A077E07F401CE07736E0019848B3206A62
:1051F00095F8351090F83520914204D205F135022A
:10520000022101F0ACFD627A294604F11400FFF797
:1052100089FE0198002809DD05F14C0001AA002152
:10522000074601F006FF384601F07AFE304601F0ED
:10523000C5FF01F033FB286B58B10930C8D0286B8B
:1052400029E76FF001042C63304601F0B7FF2046D8
:1052500021E701F0AFFF0646304601F0AFFF6E4890
:10526000016809B120468847002014E72DE9F04184
:105270000446002501F05EFC074601F09BFF064650
:105280006648016809B120468847206AB84207D0BD
:105290004FF0FF343C63304601F090FF20466DE64E
:1052A000E17F491EC9B2E177B1B9A17F90F83520FD
:1052B000914204D004F11E02022101F050FD04F1DC
:1052C0001400074600F07BFC60B1A08B401CA0835B
:1052D00000202062FF20A077304601F06FFF012DF3
:1052E0000ED00FE060691438206290F83500A07786
:1052F000E07F401CE077384600F068FC0125EBE7D2
:1053000001F0CCFA002039E64FF0FF30704770B55D
:10531000054614460A460321284601F0BFF96C727F
:105320002C461434646024600020E86170BD10B520
:10533000044604F11400FFF723FE204601F0D1F9E2
:10534000002010BD10B50C460146032001F0DFF926
:10535000002806D0447200F1140149600960002160
:10536000C16110BD10B5044604F11400FFF708FE3A
:10537000204601F0FBF9002010BD2DE9F04704465E
:105380000D464FF0FF38002D12D0002701F012FF1C
:105390008246E0692843E0612048016809B120465F
:1053A000884704F11400814600F009FC18B128E098
:1053B0004046BDE8F087656921E0A5F11400464646
:1053C00090F84010CA0705D0C16BE269914309D13A
:1053D000002607E0890705D5C16BE269114001D0BD
:1053E000C16300262D6856B990F84010490703D5CF
:1053F000E169C26B9143E16101F09FFB01274D45DB
:10540000DBD1504601F0DAFE012F01D101F046FA5E
:105410000020CEE784010020880100208C010020BC
:105420002DE9FF470546DDF830900E4690464FF0D7
:10543000FF30002E50D0074601F07CFB04460021CF
:105440002163FE48016809B12846884701F0B2FE91
:1054500082465FEAC87005D0E86936EA000008D1E4
:10546000002706E05FEA887003D5E869304200D083
:1054700000279FB3039890B3E66384F840806A7A6C
:10548000214605F11400FFF74DFD0398002809DDC2
:1054900004F14C0003AA0021064601F0CAFD304683
:1054A00001F03EFD504601F089FE01F0F7F9206B56
:1054B000002811D101F07EFE8246B9F1000F02D022
:1054C000E06BC9F80000504601F078FEDC48016846
:1054D00009B128468847206B04B06AE700E00DE078
:1054E000B9F1000F03D0E8693040C9F800005FEA65
:1054F0004870E8D5E869B043E861E4E76FF001007F
:105500002063E0E770B50446012902D04FF0FF3078
:1055100070BD01F04FFE054604F11400FFF730FDA9
:105520000020E061284601F049FE01F0B7F90020B3
:1055300070BD2DE9F0410446069F16461D460A46F9
:105540000421204601F0AAF867722046143040601A
:105550000060E661258400206084A084E084283413
:10556000646024600AE510B5044604F11400FFF7F6
:1055700007FD04F12800FFF703FD204601F0B1F814
:10558000002010BD70B50D4616460146042001F0FE
:10559000BEF80446200014D06672143040600060EB
:1055A000A8B22084800000F011FFE06158B1002013
:1055B0006084A084E08404F12800406000602046FC
:1055C00070BD204670BD204601F0D0F8002070BDAF
:1055D00010B5044604F11400FFF7D2FC04F12800D2
:1055E000FFF7CEFCE06900F075FF204601F0BEF841
:1055F000002010BD2DE9F74F04468B46002601F030
:1056000099FA05468F48016809B12046884701F09C
:10561000D1FD8046608C218C6FF0020A884201D156
:10562000029808B100273BE0404601F0C7FD504614
:10563000BDE8FE8F2F630298F0B1627A294604F12B
:105640002800FFF76FFC029800280CDDFFF775FAC1
:10565000064605F14C0002AA0021814601F0E9FC52
:10566000484601F05DFC404601F0A8FD01F016F946
:10567000286B30B1286BDBE7404601F09FFD5046B8
:10568000D6E701F097FD80460298002808DDFFF775
:1056900054FA861B0298801B0290002800DA0297B9
:1056A000608C218C8842C5D0A18CE06940F821B083
:1056B000A08C401C80B2A084218C884200D3A78497
:1056C000608C401C608404F11400044600F077FAFA
:1056D00020B1404601F072FD0020A9E7204600F00D
:1056E00075FA404601F06AFD01F0D8F800209FE706
:1056F00000227FE72DE9F74F04468B46002601F094
:1057000019FA05464D48016809B12046884701F05D
:1057100051FD8046608C6FF0010A08B9029808B10B
:1057200000273CE0404601F049FD504680E72F63EA
:105730000298F0B1627A294604F11400FFF7F2FBF7
:10574000029800280CDDFFF7F8F9064605F14C0039
:1057500002AA0021814601F06CFC484601F0E0FB02
:10576000404601F02BFD01F099F8286B40B1286B01
:105770005EE7404601F022FD5046C5F830A057E7ED
:1057800001F018FD80460298002808DDFFF7D5F9E2
:10579000861B0298801B0290002800DA0297608C1A
:1057A0000028C4D0E18CE06950F82100CBF800005B
:1057B000E08C401C80B2E084218C884200D3E784D6
:1057C000608C401E608404F12800064600F0F7F962
:1057D0001B4D40B1404601F0F1FC296809B120465B
:1057E0008847002024E7304600F0F0F9404601F0F9
:1057F000E5FC296809B12046884701F04FF80020F0
:1058000016E770B50446012902D04FF0FF3070BD95
:1058100001F0D0FC054604F11400FFF7B1FB04F1E0
:105820002800FFF7ADFB00206084A084E0842846B8
:1058300001F0C4FC01F032F8002070BD84010020AA
:10584000880100208C0100202DE9F0410446DDE9AB
:10585000066817461D460A460521204600F01EFF31
:1058600084F809802046143040600060E761ED1C38
:105870004FF6FC70054025842D1DB6FBF5F06084C5
:105880000022A262E2622263002008E0218CE36928
:10589000091D00FB0131236B0B602163401C618CEF
:1058A0008142F3DCA284002023E410B5044604F115
:1058B0001400FFF765FB204600F013FF002010BD29
:1058C00010B5044604F11400FFF75AFBE06900F03C
:1058D00001FE204600F04AFF002010BD2DE9F041F6
:1058E0000D4616461F460146052000F010FF0446EF
:1058F000200016D06772143040600060ED1C4FF637
:10590000FC7005402584B0B260842D1D684300F012
:105910005DFDE06138B10022A262E26222630020F4
:105920000FE02046BBE42046FFF7CAFF0020B6E4A4
:10593000218CE369091D00FB0131236B0B6021639E
:10594000401C618C8142F3DCA2842046A7E42DE94F
:10595000F04104460F461646208CB04202D24FF06A
:10596000FF309CE49D4803680BB12046984701F046
:1059700021FC256BA5B12968216301F01FFC0020E3
:10598000286032463946281D00F0A7F901F012FCC4
:105990000646E06A00B10560E562A06A28B105E04C
:1059A00001F00CFC6FF0020079E4A562A08C401CB1
:1059B000A08404F11400044600F001F920B130463F
:1059C00001F0FCFB00206AE4204600F0FFF83046BE
:1059D00001F0F4FB00F062FF002060E42DE9F041EB
:1059E00004460F461646208CB04202D24FF0FF30DC
:1059F00055E47A4803680BB12046984701F0DAFB7A
:105A0000256B8DB12968216301F0D8FB32463946F8
:105A1000281D00F062F901F0CDFB0646A06A28605F
:105A2000A562E06A28B105E001F0C8FB6FF0020052
:105A300035E4E562A08C401CA08404F11400044607
:105A400000F0BDF820B1304601F0B8FB002026E49C
:105A5000204600F0BBF8304601F0B0FB00F01EFF1E
:105A600000201CE42DE9FF5F04469146002601F06A
:105A700061F805465A48016809B12046884701F097
:105A800099FB0746A08C6FF0010B08B9039810B181
:105A90004FF0000840E0384601F090FB584604B053
:105AA000BDE8F09FC5F830800398F0B1627A2946CE
:105AB00004F11400FFF736FA039800280CDDFFF715
:105AC0003CF8064605F14C0003AA0021824601F08D
:105AD000B0FA504601F024FA384601F06FFB00F0AE
